:100000000C945E000C9486000C9486000C94860080
:100010000C9486000C9486000C9486000C94860048
:100020000C9486000C9486000C9486000C94860038
:100030000C9486000C9486000C9486000C94860028
:100040000C940A010C9486000C9437040C947A04E6
:100050000C9486000C9486000C9486000C94860008
:100060000C94D4060C9486000000000700020100E6
:100070000003040600000000000000000102040864
:100080001020408001020408102001020408102002
:10009000040404040404040402020202020203032E
:1000A0000303030300000000250028002B000000CC
:1000B0000000240027002A0036057B0611241FBEFD
:1000C000CFEFD8E0DEBFCDBF11E0A0E0B1E0ECEAB9
:1000D000F0E102C005900D92A633B107D9F722E0F6
:1000E000A6E3B1E001C01D92A03BB207E1F710E02A
:1000F000CCEBD0E004C02297FE010E945008C83B20
:10010000D107C9F70E9498030C9401080C940000D1
:10011000E091ED01F091EE010190F081E02D609110
:1001200038018DEE91E0099461E08DE00E940102BA
:1001300040E855E260E070E083E491E00E94B5049D
:1001400064E070E08DEE91E00E946F066EEB70E06F
:100150008DEE91E00E94710668E870E08DEE91E00E
:100160000E94760660E071E083E491E00C94CB029B
:1001700064E670E080E090E00C9477010F931F93A9
:10018000CF93DF9302E010E08DEE91E00E948C05AA
:10019000892BD9F18DEE91E00E949405909339015D
:1001A0008093380167E071E083E491E00E94AE0241
:1001B00060913801709139014AE050E083E491E0A8
:1001C0000E9480038091380190913901B8010E940A
:1001D0000408EC0181309105B9F6809136019091C7
:1001E0003701892B49F461E08DE00E943A02D093F7
:1001F0003701C0933601C8CF60E08DE00E943A021B
:100200001092370110923601BFCFDF91CF911F912D
:100210000F9108951F920F920FB60F9211242F93F2
:100220003F938F939F93AF93BF9380913B019091A6
:100230003C01A0913D01B0913E0130913A0123E093
:10024000230F2D3720F40196A11DB11D05C026E80E
:10025000230F0296A11DB11D20933A0180933B010B
:1002600090933C01A0933D01B0933E0180913F01EA
:1002700090914001A0914101B09142010196A11DD0
:10028000B11D80933F0190934001A0934101B09331
:100290004201BF91AF919F918F913F912F910F900C
:1002A0000FBE0F901F9018953FB7F89480913F01B3
:1002B00090914001A0914101B091420126B5A89BC7
:1002C00005C02F3F19F00196A11DB11D3FBF662744
:1002D000782F892F9A2F620F711D811D911D42E089
:1002E000660F771F881F991F4A95D1F70895CF92FF
:1002F000DF92EF92FF92CF93DF936B017C010E941C
:100300005401EB01C114D104E104F10479F00E941D
:1003100054016C1B7D0B683E7340A0F381E0C81A4A
:10032000D108E108F108C851DC4FECCFDF91CF9143
:10033000FF90EF90DF90CF900895789484B582601D
:1003400084BD84B5816084BD85B5826085BD85B579
:10035000816085BDEEE6F0E0808181608083E1E828
:10036000F0E0108280818260808380818160808360
:10037000E0E8F0E0808181608083E1EBF0E0808163
:1003800084608083E0EBF0E0808181608083EAE735
:10039000F0E08081846080838081826080838081BE
:1003A000816080838081806880831092C10008957D
:1003B000833081F028F4813099F08230A1F00895E3
:1003C0008630A9F08730B9F08430D1F48091800074
:1003D0008F7D03C0809180008F7780938000089587
:1003E00084B58F7702C084B58F7D84BD08958091D8
:1003F000B0008F7703C08091B0008F7D8093B000F4
:100400000895CF93DF9390E0FC01E458FF4F2491CF
:10041000FC01E057FF4F8491882349F190E0880F59
:10042000991FFC01E255FF4FA591B4918C559F4F48
:10043000FC01C591D4919FB7611108C0F8948C91CB
:10044000209582238C93888182230AC0623051F4E4
:10045000F8948C91322F309583238C938881822B52
:10046000888304C0F8948C91822B8C939FBFDF917A
:10047000CF9108950F931F93CF93DF931F92CDB722
:10048000DEB7282F30E0F901E859FF4F8491F901D8
:10049000E458FF4F1491F901E057FF4F04910023F6
:1004A000C9F0882321F069830E94D8016981E02F77
:1004B000F0E0EE0FFF1FEC55FF4FA591B4919FB7F1
:1004C000F8948C91611103C01095812301C0812B98
:1004D0008C939FBF0F90DF91CF911F910F91089543
:1004E000CF92DF92EF92FF920F931F93CF93DF9300
:1004F0006C017A01EB01E60EF71E00E010E0CE156C
:10050000DF0561F06991D601ED91FC910190F081D8
:10051000E02DC6010995080F191FF1CFC801DF9121
:10052000CF911F910F91FF90EF90DF90CF900895A2
:100530006115710581F0DB010D900020E9F7AD0137
:1005400041505109461B570BDC01ED91FC91028093
:10055000F381E02D099480E090E008950C949802D6
:10056000DC01ED91FC910190F081E02D09940F9355
:100570001F93CF93DF93EC016DE00E94B0028C01DA
:100580006AE0CE010E94B002800F911FDF91CF91EF
:100590001F910F9108950F931F93CF93DF93EC0159
:1005A0000E9498028C01CE010E94B702800F911F19
:1005B000DF91CF911F910F9108958F929F92AF92EB
:1005C000BF92CF92DF92EF92FF920F931F93CF9340
:1005D000DF93CDB7DEB7A1970FB6F894DEBF0FBE9D
:1005E000CDBF7C01C42EE52FCB01D22E19A221E074
:1005F0002D1510F02AE0D22E8E010F5D1F4F8D2C8D
:10060000912CA12CB12C6C2D7E2FA50194010E9460
:1006100018088C2DD29E80191124015011098A309E
:1006200014F4805D01C0895CF801808321153105D7
:100630004105510521F0C22EE32FCA01E4CFB801D4
:10064000C7010E949802A1960FB6F894DEBF0FBEB4
:10065000CDBFDF91CF911F910F91FF90EF90DF9071
:10066000CF90BF90AF909F908F900895CF92DF92E0
:10067000EF92FF920F931F93CF93DF93EC016A01E8
:100680007B012115310579F4E881F9810190F08130
:10069000E02D642FDF91CF911F910F91FF90EF908C
:1006A000DF90CF9009942A303105E9F477FF1AC022
:1006B0006DE20E94B0028C0144275527BA014C1903
:1006C0005D096E097F092AE0CE010E94DD02800FDC
:1006D000911FDF91CF911F910F91FF90EF90DF90CD
:1006E000CF9008952AE0B701A601CE01DF91CF9106
:1006F0001F910F91FF90EF90DF90CF900C94DD024F
:100700000F931F93CF93DF93EC019A01AB01662700
:1007100057FD6095762F0E9436038C01CE010E9412
:10072000B702800F911FDF91CF911F910F91089514
:100730000E949D010E949400C1E7D4E00E94B8008D
:100740002097E1F30E947104F9CFFC0124853585DF
:10075000F901E05CFF4F80819181329620813181E7
:10076000821B930B8F7399270895FC0184859585CF
:10077000FC01E05CFF4F4081518132962081318144
:100780004217530741F00190F081E02DE80FF91F67
:10079000808190E008958FEF9FEF0895FC0184859C
:1007A0009585FC01E05CFF4F4081518132962081AC
:1007B00031814217530779F0A081B181A80FB91F89
:1007C0008C91208131812F5F3F4F2F7333273183ED
:1007D000208390E008958FEF9FEF0895FC0181A1A1
:1007E000882329F0A489B5898C9186FFFBCF11A2BB
:1007F0000895CF93DF93FC0126853785D901A05C4E
:10080000BF4F8D919C91119701968F739927E901A4
:10081000CE5BDF4F4881598184179507D9F30D903E
:10082000BC91A02DA20FB31F6C93A685B785A05CC9
:10083000BF4F11969C938E93A689B7892C9181E026
:1008400090E0078C02C0880F991F0A94E2F7282BCA
:100850002C9381E081A30488F589E02D8081806458
:10086000808381E090E0DF91CF91089508951F92F9
:100870000F920FB60F9211242F933F934F938F93A4
:100880009F93EF93FF938091C00082FD1CC0409125
:10089000C6008091E9019091EA0101968F73992732
:1008A0002091EB013091EC018217930771F0E091F8
:1008B000E901F091EA01E755FE4F40839093EA0188
:1008C0008093E90102C08091C600FF91EF919F9152
:1008D0008F914F913F912F910F900FBE0F901F90CE
:1008E000189583E491E00E94A503892B11F00C94E4
:1008F000360408951F920F920FB60F9211242F9372
:100900003F938F939F93EF93FF932091A501309195
:10091000A6018091A7019091A8012817390731F409
:100920008091C1008F7D8093C10014C0E091A70128
:10093000F091A801EB59FE4F20818091A701909181
:10094000A80101968F7399279093A8018093A7011E
:100950002093C600FF91EF919F918F913F912F912E
:100960000F900FBE0F901F901895CF92DF92EF92CD
:10097000FF92CF93DF93EC016A017B01411581EE79
:10098000580761057105F9F0EC89FD8981E090E077
:1009900008A002C0880F991F0A94E2F7808360E0E4
:1009A00079E08DE390E0A70196010E94180821509C
:1009B00031094109510956954795379527952115D4
:1009C00080E1380798F0EC89FD89108260E874E8CE
:1009D0008EE190E0A70196010E941808215031098C
:1009E000410951095695479537952795E889F98921
:1009F0003083EA89FB89208319A2EE89FF8940812F
:100A000081E090E09C010C8C02C0220F331F0A94FD
:100A1000E2F7422B4083EE89FF8940819C010D8CD7
:100A200002C0220F331F0A94E2F7422B4083EE8963
:100A3000FF8940819C010E8C02C0220F331F0A9453
:100A4000E2F7422B4083EE89FF8920810F8C02C0A0
:100A5000880F991F0A94E2F7809582238083DF91A3
:100A6000CF91FF90EF90DF90CF90089510924601C4
:100A70001092450188EE93E0A0E0B0E0809347013A
:100A800090934801A0934901B0934A0189E191E014
:100A9000909344018093430189EA91E0909350013F
:100AA00080934F0185E691E090935201809351012C
:100AB00085EC90E0909354018093530184EC90E096
:100AC000909356018093550180EC90E090935801EB
:100AD0008093570181EC90E090935A0180935901E3
:100AE00082EC90E090935C0180935B0186EC90E057
:100AF00090935E0180935D0184E080935F0183E0C9
:100B00008093600187E08093610185E080936201BA
:100B100081E08093630108958091200290E020910C
:100B20002102821B910908952091210280912002C7
:100B3000281750F4E22FF0E0EE5DFD4F808190E049
:100B40002F5F2093210208958FEF9FEF0895E0918A
:100B5000210280912002E81730F4F0E0EE5DFD4FB5
:100B6000808190E008958FEF9FEF08950895E091C0
:100B7000F901F091FA013097E1F0309121022091D2
:100B800020023217B0F040E0242F30E0261737075C
:100B900054F4DC01A20FB31F5C91D901AE5DBD4FCF
:100BA0005C934F5FF1CF1092210260932002CB0142
:100BB00009940895E091FB01F091FC01309729F030
:100BC0001092FF011092FE0109940895CF92DF92D6
:100BD000EF92FF920F931F93CF93DF937C01CB0192
:100BE0008A012091FD01222389F0EB016B01C40EE3
:100BF000D51ECC15DD0569F06991D701ED91FC9109
:100C00000190F081E02DC7010995F3CF642F0E9478
:100C1000A106C801DF91CF911F910F91FF90EF9036
:100C2000DF90CF900895CF93DF931F92CDB7DEB7BB
:100C300069832091FD012223D1F02091FE01203211
:100C400040F021E030E0FC013383228380E090E03B
:100C500015C08091FF01E82FF0E0E050FE4F998130
:100C600090838F5F8093FF018093FE0105C061E058
:100C7000CE0101960E94A10681E090E00F90DF91E5
:100C8000CF910895FC011382128248EE53E060E098
:100C900070E0448355836683778389E291E0918392
:100CA0008083089510922102109220021092FF0179
:100CB0001092FE010C947F06CF93DF93EC01862FF8
:100CC0000E949D068AED95E00E94BF0687EB95E0A5
:100CD0000E94BA06CE01DF91CF910C9452060C947B
:100CE0005C067093FA016093F90108957093FC011A
:100CF0006093FB0108958DEE91E00C9442061092F2
:100D0000AF0281E08093AD021092AC0261E082E11B
:100D10000E943A0261E083E10E943A02E9EBF0E0CE
:100D200080818E7F808380818D7F808388E4809323
:100D3000B80085E48093BC000895880F8093BA00C2
:100D40000895613298F42091AF02243089F46093C1
:100D50006402FC0186E692E0DC012A2F281B26179C
:100D600018F421912D93F9CF80E0089581E0089542
:100D700082E008959093A9028093A8020895909329
:100D8000AB028093AA02089585ED8093BC00809108
:100D9000BC0084FDFCCF1092AF02089585EC8093D7
:100DA000BC001092AF0208951F920F920FB60F92DF
:100DB00011242F933F934F935F936F937F938F9360
:100DC0009F93AF93BF93EF93FF938091B900887F78
:100DD000803609F49CC068F5883209F45BC090F451
:100DE000803109F454C038F4882309F4F5C0883000
:100DF00009F44DC0F5C0883109F44CC0803209F4C3
:100E00005DC0EEC0803409F468C048F4803309F452
:100E100055C0883309F0E4C080934202A8C08035F1
:100E200009F44FC0883509F45DC0883409F0D8C092
:100E3000D5C0883909F4C6C0A8F4883709F467C05A
:100E400038F4883609F463C0803709F460C0C8C03C
:100E5000883809F4B7C0803909F45FC0803809F0D8
:100E6000BFC05BC0803B09F485C038F4803A09F408
:100E700066C0883A09F47EC0B3C0803C09F4A6C0BD
:100E8000883C09F4A3C0883B09F489C0A9C08091BB
:100E9000AE0210C09091870280918602981770F57B
:100EA000E091870281E08E0F80938702F0E0E8579F
:100EB000FD4F80818093BB0085EC85C0809342020A
:100EC0008DC0E091870281E08E0F80938702809130
:100ED000BB00F0E0E857FD4F80839091870280913E
:100EE00086026DC0E091870281E08E0F80938702B9
:100EF0008091BB00F0E0E857FD4F80838091AD0208
:100F000081116CC081E08093AC0284EA60C083E010
:100F10008093AF0210924302CFCF80914302803280
:100F200008F050C0E091430281E08E0F80934302AD
:100F30008091BB00F0E0EC5BFD4F8083BDCF8091E2
:100F40004302803230F4E0914302F0E0EC5BFD4F6D
:100F500010820E94C4066091430270E0E091A802F2
:100F6000F091A90284E492E00995109243020E9454
:100F7000CE0636C084E08093AF02109265021092D4
:100F80006402E091AA02F091AB020995809164029B
:100F9000811105C081E08093640210926602E091A5
:100FA000650281E08E0F80936502F0E0EA59FD4F03
:100FB00080818093BB0090916502809164029817B4
:100FC00008F47ACF85E88093BC000AC085EC809352
:100FD000BC001092AF0204C0109242020E94C406EC
:100FE000FF91EF91BF91AF919F918F917F916F9101
:100FF0005F914F913F912F910F900FBE0F901F90D7
:101000001895F8940C94540897FB072E16F4009446
:1010100007D077FD09D00E943A0807FC05D03EF4BE
:10102000909581959F4F0895709561957F4F089594
:10103000A1E21A2EAA1BBB1BFD010DC0AA1FBB1FDC
:10104000EE1FFF1FA217B307E407F50720F0A21B4E
:10105000B30BE40BF50B661F771F881F991F1A94BB
:1010600069F760957095809590959B01AC01BD01E5
:10107000CF010895AA1BBB1B51E107C0AA1FBB1FCC
:10108000A617B70710F0A61BB70B881F991F5A9514
:10109000A9F780959095BC01CD010895EE0FFF1F33
:0C10A0000590F491E02D0994F894FFCF26
:1010AC0048617A697221006461746120616C696EB7
:1010BC0064693A200000000000F9037002A503CE19
:1010CC0003B503EE03000000001306E6058C05943F
:0610DC0005A705B60500A2
:00000001FF
