:100000000C9453000C947B000C947B000C947B00AC
:100010000C947B000C947B000C947B000C947B0074
:100020000C947B000C947B000C947B000C947B0064
:100030000C947B000C947B000C947B000C947B0054
:100040000C9467030C9494000C9412020C945502C7
:100050000C947B000C947B000C947B000C947B0034
:100060000C947B000C947B0001020408102040805B
:1000700001020408102001020408102004040404F2
:100080000404040402020202020203030303030342
:1000900000000000250028002B00000000002400C4
:1000A00027002A00110311241FBECFEFD8E0DEBFC6
:1000B000CDBF11E0A0E0B1E0E2E3F8E002C00590BE
:1000C0000D92A031B107D9F722E0A0E1B1E001C063
:1000D0001D92A932B207E1F710E0C6EAD0E004C0F1
:1000E0002297FE010E941304C43AD107C9F70E9467
:1000F00073010C94EC030C94000040E052EC61E0BE
:1001000070E086E791E00E94900261E08CE00E943E
:10011000CF008CB580648CBD10921101109210013B
:100120008CB580688CBD08951F920F920FB60F9208
:1001300011248F939F93EF93FF938EB590911101AC
:10014000943678F4E091110191E09E0F90931101A3
:10015000F0E0EE5EFE4F80838A3019F481E08093F8
:100160001001FF91EF919F918F910F900FBE0F9013
:100170001F90189580911001882381F0E091110162
:10018000F0E0EE5EFE4F108262E171E086E791E002
:100190000E94610110921101109210010895CF93F5
:1001A000DF9390E0FC01E859FF4F2491FC01E458F3
:1001B000FF4F8491882349F190E0880F991FFC013B
:1001C000E656FF4FA591B49180579F4FFC01C59112
:1001D000D4919FB7611108C0F8948C912095822327
:1001E0008C93888182230AC0623051F4F8948C91F8
:1001F000322F309583238C938881822B888304C08F
:10020000F8948C91822B8C939FBFDF91CF910895AE
:10021000CF92DF92EF92FF920F931F93CF93DF93D2
:100220006C017A01EB01E60EF71E00E010E0CE153E
:10023000DF0561F06991D601ED91FC910190F081AB
:10024000E02DC6010995080F191FF1CFC801DF91F4
:10025000CF911F910F91FF90EF90DF90CF90089575
:100260006115710581F0DB010D900020E9F7AD010A
:1002700041505109461B570BDC01ED91FC91028066
:10028000F381E02D099480E090E00895DC01ED9188
:10029000FC910190F081E02D09940F931F93CF936F
:1002A000DF93EC016DE00E9446018C016AE0CE0113
:1002B0000E944601800F911FDF91CF911F910F91F6
:1002C00008950F931F93CF93DF93EC010E943001A9
:1002D0008C01CE010E944D01800F911FDF91CF91C3
:1002E0001F910F9108950E94B1030E947D00CCE4FC
:1002F000D2E00E94BA002097E1F30E944C02F9CFAD
:10030000FC0124853585F901E05CFF4F80819181F6
:10031000329620813181821B930B8F739927089528
:10032000FC0184859585FC01E05CFF4F4081518193
:100330003296208131814217530741F00190F081BC
:10034000E02DE80FF91F808190E008958FEF9FEF77
:100350000895FC0184859585FC01E05CFF4F408198
:1003600051813296208131814217530779F0A08163
:10037000B181A80FB91F8C91208131812F5F3F4F30
:100380002F7333273183208390E008958FEF9FEF01
:100390000895FC0181A1882329F0A489B5898C9155
:1003A00086FFFBCF11A20895CF93DF93FC01268532
:1003B0003785D901A05CBF4F8D919C911197019613
:1003C0008F739927E901CE5BDF4F488159818417EC
:1003D0009507D9F30D90BC91A02DA20FB31F6C937C
:1003E000A685B785A05CBF4F11969C938E93A68976
:1003F000B7892C9181E090E0078C02C0880F991F8B
:100400000A94E2F7282B2C9381E081A30488F589D4
:10041000E02D80818064808381E090E0DF91CF9146
:10042000089508951F920F920FB60F9211242F93E3
:100430003F934F938F939F93EF93FF938091C000CF
:1004400082FD1CC04091C60080911C0290911D024B
:1004500001968F73992720911E0230911F028217F7
:10046000930771F0E0911C02F0911D02E452FE4FDF
:10047000408390931D0280931C0202C08091C600AD
:10048000FF91EF919F918F914F913F912F910F90FD
:100490000FBE0F901F90189586E791E00E94800193
:1004A000892B11F00C94110208951F920F920FB630
:1004B0000F9211242F933F938F939F93EF93FF936A
:1004C0002091D8013091D9018091DA019091DB011E
:1004D0002817390731F48091C1008F7D8093C100C6
:1004E00014C0E091DA01F091DB01E856FE4F208163
:1004F0008091DA019091DB0101968F739927909397
:10050000DB018093DA012093C600FF91EF919F9168
:100510008F913F912F910F900FBE0F901F901895C4
:10052000CF92DF92EF92FF92CF93DF93EC016A01BB
:100530007B01411581EE580761057105F9F0EC89E1
:10054000FD8981E090E008A002C0880F991F0A94FD
:10055000E2F7808360E079E08DE390E0A701960107
:100560000E94EF03215031094109510956954795E1
:1005700037952795211580E1380798F0EC89FD899A
:10058000108260E874E88EE190E0A70196010E9475
:10059000EF03215031094109510956954795379587
:1005A0002795E889F9893083EA89FB89208319A294
:1005B000EE89FF89408181E090E09C010C8C02C0B3
:1005C000220F331F0A94E2F7422B4083EE89FF8902
:1005D00040819C010D8C02C0220F331F0A94E2F768
:1005E000422B4083EE89FF8940819C010E8C02C022
:1005F000220F331F0A94E2F7422B4083EE89FF89D2
:1006000020810F8C02C0880F991F0A94E2F7809511
:1006100082238083DF91CF91FF90EF90DF90CF9086
:100620000895109279011092780188EE93E0A0E08D
:10063000B0E080937A0190937B01A0937C01B0930A
:100640007D0184E091E090937701809376018CEDB9
:1006500091E0909383018093820188E991E09093E7
:1006600085018093840185EC90E0909387018093CD
:10067000860184EC90E0909389018093880180EC5E
:1006800090E090938B0180938A0181EC90E09093AD
:100690008D0180938C0182EC90E090938F01809388
:1006A0008E0186EC90E0909391018093900184E01C
:1006B0008093920183E08093930187E0809394017B
:1006C00085E08093950181E08093960108951F92C3
:1006D0000F920FB60F9211242F933F938F939F93F6
:1006E000AF93BF938091210290912202A0912302A7
:1006F000B09124023091200223E0230F2D3720F403
:100700000196A11DB11D05C026E8230F0296A11D6B
:10071000B11D209320028093210290932202A09386
:100720002302B09324028091250290912602A09189
:100730002702B09128020196A11DB11D80932502C8
:1007400090932602A0932702B0932802BF91AF9105
:100750009F918F913F912F910F900FBE0F901F90FF
:100760001895789484B5826084BD84B5816084BD19
:1007700085B5826085BD85B5816085BDEEE6F0E01A
:10078000808181608083E1E8F0E010828081826076
:100790008083808181608083E0E8F0E080818160F7
:1007A0008083E1EBF0E0808184608083E0EBF0E027
:1007B000808181608083EAE7F0E0808184608083CB
:1007C0008081826080838081816080838081806875
:1007D00080831092C1000895F8940C941704A1E24C
:1007E0001A2EAA1BBB1BFD010DC0AA1FBB1FEE1FAB
:1007F000FF1FA217B307E407F50720F0A21BB30BF6
:10080000E40BF50B661F771F881F991F1A9469F771
:1008100060957095809590959B01AC01BD01CF01CD
:100820000895EE0FFF1F0590F491E02D0994F894C0
:02083000FFCFF8
:1008320000000000D40108018001A9019001C90152
:00000001FF
