:100000000C945D000C9485000C9485000C94850084
:100010000C9485000C9485000C9485000C9485004C
:100020000C9485000C9485000C9485000C9485003C
:100030000C9485000C9485000C9485000C9485002C
:100040000C9408010C9485000C948A040C94CD0443
:100050000C9485000C9485000C9485000C9485000C
:100060000C9485000C94850000000007000201003C
:100070000003040600000000000000000102040864
:100080001020408001020408102001020408102002
:10009000040404040404040402020202020203032E
:1000A0000303030300000000250028002B000000CC
:1000B0000000240027002A00890511241FBECFEF6D
:1000C000D8E0DEBFCDBF11E0A0E0B1E0E8E1FCE0A8
:1000D00002C005900D92A831B107D9F721E0A8E13F
:1000E000B1E001C01D92AB3CB207E1F710E0CAEBF2
:1000F000D0E004C02297FE010E940606C83BD1074B
:10010000C9F70E94EB030C94DF050C9400000F93D9
:100110001F93CF93DF93EB018A01BC01809104010F
:100120000E94D601BE01809102010E94D601B80151
:1001300080910001DF91CF911F910F910C94D60116
:1001400061E0809104010E945E0261E08091020101
:100150000E945E0261E0809100010E945E0240E820
:1001600055E260E070E081E291E00C940805EF92C6
:10017000FF920F931F93CF93DF9300E010E0C0E056
:10018000D0E0E12CF12CA701BE01C8010E9487003C
:100190004AE050E0B80181E291E00E94CB0366E0C2
:1001A00071E081E291E00E940B034AE050E0BE0161
:1001B00081E291E00E94CB0366E071E081E291E090
:1001C0000E940B034AE050E0B70181E291E00E94F7
:1001D000D30360E070E0CB010E9475018FEFE81A55
:1001E000F80AE11481E0F80671F62196C11581E064
:1001F000D80739F60F5F1F4F011581E0180709F086
:10020000BECFDF91CF911F910F91FF90EF90089596
:100210001F920F920FB60F9211242F933F938F933B
:100220009F93AF93BF938091190190911A01A09170
:100230001B01B0911C013091180123E0230F2D37D1
:1002400020F40196A11DB11D05C026E8230F0296DA
:10025000A11DB11D209318018093190190931A01DB
:10026000A0931B01B0931C0180911D0190911E0170
:10027000A0911F01B09120010196A11DB11D809395
:100280001D0190931E01A0931F01B0932001BF9107
:10029000AF919F918F913F912F910F900FBE0F9033
:1002A0001F9018953FB7F89480911D0190911E0101
:1002B000A0911F01B091200126B5A89B05C02F3F3A
:1002C00019F00196A11DB11D3FBF6627782F892F18
:1002D0009A2F620F711D811D911D42E0660F771FDD
:1002E000881F991F4A95D1F70895CF92DF92EF9218
:1002F000FF92CF93DF936B017C010E945201EB01CF
:10030000C114D104E104F10479F00E9452016C1B84
:100310007D0B683E7340A0F381E0C81AD108E10864
:10032000F108C851DC4FECCFDF91CF91FF90EF90F7
:10033000DF90CF900895789484B5826084BD84B5B1
:10034000816084BD85B5826085BD85B5816085BDD0
:10035000EEE6F0E0808181608083E1E8F0E01082E9
:10036000808182608083808181608083E0E8F0E02A
:10037000808181608083E1EBF0E080818460808314
:10038000E0EBF0E0808181608083EAE7F0E080814B
:1003900084608083808182608083808181608083AB
:1003A0008081806880831092C10008951F93CF934D
:1003B000DF93182FEB0161E00E945E02209711F499
:1003C00060E004C0CF3FD10539F461E0812FDF91B7
:1003D000CF911F910C949702E12FF0E0E859FF4F65
:1003E000E491E330F9F048F4E130B9F0E230A1F5FE
:1003F00084B5806284BDC8BD34C0E630E9F0E73022
:1004000019F1E43049F5809180008062809380008A
:10041000D0938B00C0938A0024C084B5806884BDCB
:10042000C7BD1FC080918000806880938000D093FA
:100430008900C093880015C08091B00080688093C7
:10044000B000C093B3000DC08091B0008062809373
:10045000B000C093B40005C0C038D1050CF0B5CFD2
:10046000AFCFDF91CF911F910895833081F028F4B1
:10047000813099F08230A1F008958630A9F087305C
:10048000B9F08430D1F4809180008F7D03C08091D9
:1004900080008F7780938000089584B58F7702C0A5
:1004A00084B58F7D84BD08958091B0008F7703C09F
:1004B0008091B0008F7D8093B0000895CF93DF933B
:1004C00090E0FC01E458FF4F2491FC01E057FF4FFE
:1004D0008491882349F190E0880F991FFC01E2552F
:1004E000FF4FA591B4918C559F4FFC01C591D491BC
:1004F0009FB7611108C0F8948C91209582238C934A
:10050000888182230AC0623051F4F8948C91322F92
:10051000309583238C938881822B888304C0F89440
:100520008C91822B8C939FBFDF91CF9108950F9375
:100530001F93CF93DF931F92CDB7DEB7282F30E004
:10054000F901E859FF4F8491F901E458FF4F1491E4
:10055000F901E057FF4F04910023C9F0882321F0EF
:1005600069830E9435026981E02FF0E0EE0FFF1FE2
:10057000EC55FF4FA591B4919FB7F8948C91611100
:1005800003C01095812301C0812B8C939FBF0F90D6
:10059000DF91CF911F910F910895CF92DF92EF924B
:1005A000FF920F931F93CF93DF936C017A01EB01BE
:1005B000E60EF71E00E010E0CE15DF0561F0699150
:1005C000D601ED91FC910190F081E02DC6010995D5
:1005D000080F191FF1CFC801DF91CF911F910F9123
:1005E000FF90EF90DF90CF9008956115710581F035
:1005F000DB010D900020E9F7AD0141505109461B88
:10060000570BDC01ED91FC910280F381E02D099400
:1006100080E090E008950C94F502DC01ED91FC91EE
:100620000190F081E02D09940F931F93CF93DF93F6
:10063000EC016DE00E940D038C016AE0CE010E9486
:100640000D03800F911FDF91CF911F910F9108959E
:100650008F929F92AF92BF92CF92DF92EF92FF92D2
:100660000F931F93CF93DF93CDB7DEB7A1970FB64C
:10067000F894DEBF0FBECDBF7C01C42EE52FCB01A9
:10068000D22E19A221E02D1510F02AE0D22E8E01D3
:100690000F5D1F4F8D2C912CA12CB12C6C2D7E2F1A
:1006A000A50194010E94E2058C2DD29E801911248F
:1006B000015011098A3014F4805D01C0895CF80191
:1006C0008083211531054105510521F0C22EE32F0C
:1006D000CA01E4CFB801C7010E94F502A1960FB686
:1006E000F894DEBF0FBECDBFDF91CF911F910F9168
:1006F000FF90EF90DF90CF90BF90AF909F908F9042
:100700000895CF92DF92EF92FF920F931F93CF93B2
:10071000DF93EC016A017B012115310579F4E88151
:10072000F9810190F081E02D642FDF91CF911F912D
:100730000F91FF90EF90DF90CF9009942A30310510
:10074000E9F477FF1AC06DE20E940D038C01442783
:100750005527BA014C195D096E097F092AE0CE01BF
:100760000E942803800F911FDF91CF911F910F915D
:10077000FF90EF90DF90CF9008952AE0B701A60197
:10078000CE01DF91CF911F910F91FF90EF90DF90FD
:10079000CF900C9428039A01AB01662757FD609512
:1007A000762F0C9481030F931F93CF93DF93EC016B
:1007B0009A01AB01662757FD6095762F0E94810351
:1007C0008C01CE010E941403800F911FDF91CF9105
:1007D0001F910F9108950E949B010E94A000C4ECFC
:1007E000D4E00E94B7002097E1F30E94C404F9CF3F
:1007F000FC0124853585F901E05CFF4F8081918102
:10080000329620813181821B930B8F739927089533
:10081000FC0184859585FC01E05CFF4F408151819E
:100820003296208131814217530741F00190F081C7
:10083000E02DE80FF91F808190E008958FEF9FEF82
:100840000895FC0184859585FC01E05CFF4F4081A3
:1008500051813296208131814217530779F0A0816E
:10086000B181A80FB91F8C91208131812F5F3F4F3B
:100870002F7333273183208390E008958FEF9FEF0C
:100880000895FC0181A1882329F0A489B5898C9160
:1008900086FFFBCF11A20895CF93DF93FC0126853D
:1008A0003785D901A05CBF4F8D919C91119701961E
:1008B0008F739927E901CE5BDF4F488159818417F7
:1008C0009507D9F30D90BC91A02DA20FB31F6C9387
:1008D000A685B785A05CBF4F11969C938E93A68981
:1008E000B7892C9181E090E0078C02C0880F991F96
:1008F0000A94E2F7282B2C9381E081A30488F589E0
:10090000E02D80818064808381E090E0DF91CF9151
:10091000089508951F920F920FB60F9211242F93EE
:100920003F934F938F939F93EF93FF938091C000DA
:1009300082FD1CC04091C6008091C7019091C80102
:1009400001968F7399272091C9013091CA018217AE
:10095000930771F0E091C701F091C801E957FE4F8C
:1009600040839093C8018093C70102C08091C60064
:10097000FF91EF919F918F914F913F912F910F9008
:100980000FBE0F901F90189581E291E00E94F8032E
:10099000892B11F00C94890408951F920F920FB6C1
:1009A0000F9211242F933F938F939F93EF93FF9375
:1009B000209183013091840180918501909186017D
:1009C0002817390731F48091C1008F7D8093C100D1
:1009D00014C0E0918501F0918601ED5BFE4F20810E
:1009E000809185019091860101968F73992790934C
:1009F0008601809385012093C600FF91EF919F911E
:100A00008F913F912F910F900FBE0F901F901895CF
:100A1000CF92DF92EF92FF92CF93DF93EC016A01C6
:100A20007B01411581EE580761057105F9F0EC89EC
:100A3000FD8981E090E008A002C0880F991F0A9408
:100A4000E2F7808360E079E08DE390E0A701960112
:100A50000E94E205215031094109510956954795F7
:100A600037952795211580E1380798F0EC89FD89A5
:100A7000108260E874E88EE190E0A70196010E9480
:100A8000E20521503109410951095695479537959D
:100A90002795E889F9893083EA89FB89208319A29F
:100AA000EE89FF89408181E090E09C010C8C02C0BE
:100AB000220F331F0A94E2F7422B4083EE89FF890D
:100AC00040819C010D8C02C0220F331F0A94E2F773
:100AD000422B4083EE89FF8940819C010E8C02C02D
:100AE000220F331F0A94E2F7422B4083EE89FF89DD
:100AF00020810F8C02C0880F991F0A94E2F780951D
:100B000082238083DF91CF91FF90EF90DF90CF9091
:100B10000895109224011092230188EE93E0A0E042
:100B2000B0E08093250190932601A0932701B09314
:100B300028018CE091E0909322018093210187E8C5
:100B400091E090932E0180932D0183E491E09093A6
:100B5000300180932F0185EC90E0909332018093D7
:100B6000310184EC90E0909334018093330180EC68
:100B700090E0909336018093350181EC90E0909362
:100B800038018093370182EC90E090933A01809392
:100B9000390186EC90E090933C0180933B0184E026
:100BA00080933D0183E080933E0187E080933F0185
:100BB00085E08093400181E0809341010895F8949D
:100BC0000C940A06A1E21A2EAA1BBB1BFD010DC044
:100BD000AA1FBB1FEE1FFF1FA217B307E407F507ED
:100BE00020F0A21BB30BE40BF50B661F771F881FC9
:100BF000991F1A9469F760957095809590959B015F
:100C0000AC01BD01CF010895EE0FFF1F0590F491D7
:080C1000E02D0994F894FFCFD8
:100C180009000A000B002000000000004C04CD026F
:080C2800F80321040804410453
:00000001FF
